:10000000E9C200000C9448140C941D140C94F213D3
:100010000C94C7130C949C130C9471130C944613FA
:100020000C941B1308C3000006C3000004C30000A7
:1000300002C300000C940A15FEC20000FCC20000BE
:10004000FAC20000F8C20000F6C20000F4C20000CC
:10005000F2C20000F0C20000EEC200000C94D11207
:10006000EAC200000C94570B0C942E0BE4C2000063
:10007000E2C20000E0C20000DEC20000DCC20000FC
:10008000DAC20000D8C20000D6C20000D4C200000C
:10009000D2C20000D0C20000CEC20000CCC200001C
:1000A000CAC20000C8C20000C6C20000C4C200002C
:1000B000C2C20000C0C20000BEC20000BCC200003C
:1000C000BAC20000B8C20000B6C20000B4C200004C
:1000D000B2C20000B0C200000C94050B0C94DC0A04
:1000E000AAC2000027111D111F112111231129116E
:1000F0002B11F611F911E811EC11F2113012FD116A
:10010000011207120B120F12151219121D123012C2
:10011000231227122B12B7128F1297129F12A712B7
:10012000BF12C71200002100240027002A002D0062
:100130003000330001010000040107010A01000042
:100140002200250028002B002E003100340002017F
:100150000000050108010B01050505050705080854
:100160000808020202020A0A080804040404010141
:100170000101010101010303030303030303040756
:1001800007070C0C0C0C0C0C0C0C020202020606ED
:100190000606060606060B0B0B0B0B0B0B0B0102E0
:1001A0001020200808102040102040800201020189
:1001B0000804020101020408102040808040201041
:1001C000080402018004020180402010080402019A
:1001D0000804020101020408102040800102040802
:1001E0001020408000000A0B02090C0D0E080703C6
:1001F00004010000000000000000000000000000FA
:1002000000000000000000000000000000000000EE
:1002100012111000000000000000000000000000AB
:1002200000000000000000000000204755490020A9
:10023000616C740020636F6E74726F6C0020736861
:1002400069667400000020002300260029002C00AD
:100250002F00320000010000030106010901526570
:1002600061647920746F20726563656976652049E1
:1002700052207369676E616C7300454C2D54435076
:100280002072656164790054435020736F636B651D
:1002900074207365747570206661696C65642C20C8
:1002A00074727920616761696E20696E2031302037
:1002B0007365636F6E647320616674657220726526
:1002C000626F6F7400576966692073746174757327
:1002D0003A2000454C2D436C69656E742073796E2D
:1002E0006365642100454C2D436C69656E74207311
:1002F000796E63206661696C65642100454C2D430D
:100300006C69656E74207374617274696E67210024
:1003100053656E64696E67206D65737361676520F0
:10032000746F20004C6F7374205769466920636FA7
:100330006E6E656374696F6E2C2074727920746FB1
:10034000207265626F6F740020636C69636B004399
:100350007573746F6D20446576696365206461749C
:10036000613A004368616E6765207370656564205B
:10037000746F3A002076616C75653A004B657920A0
:10038000686F6C64004B6579207772697465002032
:10039000426974733D2000204755490020616C7408
:1003A000206B65790020636F6E74726F6C206B65D3
:1003B0007900207368696674206B657900206D6927
:1003C00064646C6520627574746F6E002072696776
:1003D000687420627574746F6E00206C656674209A
:1003E000627574746F6E0020636C65617220616C5D
:1003F0006C00546F67676C65004D6F757365204DB9
:100400006F7665204572726F7200496E6372656126
:1004100073652073706565642066726F6D2000449B
:1004200065637265617365207370656564206672CB
:100430006F6D2000646F776E2000757020004D6F27
:1004400075736520576865656C2000646F776E2052
:1004500000757020006C65667420007269676874AE
:1004600020004D6F757365206D6F766520002068E4
:100470006F6C64004552524F52006D6964646C6544
:10048000007269676874006C656674004D6F7573FF
:100490006520002043594B4D206465636F6465649B
:1004A0003A004761703D0043594B4D0072636D6DDA
:1004B000004469726563545600472E492E436162B9
:1004C0006C650053616D73756E673336004E45433E
:1004D00078004A56430050616E61736F6E69632005
:1004E0004F6C64005243360052433500536F6E79AF
:1004F000004E454300556E6B6E6F776E00556E7300
:1005000075700009206D61783A0053706163652051
:100510006D696E3A0009206D61783A004D61726B29
:1005200020206D696E3A00457874656E743D00094F
:10053000200009002073003A6D0020207300202065
:10054000486561643A206D00293A204761703A009D
:100550005261772073616D706C657328004175740A
:100560006F20526573756D6564002062697473292C
:10057000200020280020416472733A00293A205656
:10058000616C75653A0028004465636F646564209A
:1005900000AC05C505D405E205EB05FC05D4051343
:1005A0000640065406660679068806D4059A06AA09
:1005B0000657494649204E4F542052454144593A26
:1005C00020005749464920434F4E4E454354454429
:1005D0000000A41F11241FBECFEFD1E2DEBFCDBFAC
:1005E00000E00CBF29E0AEEBB6E001C01D92A53FD4
:1005F000B207E1F716E0A0E0B2E0ECEFF0E500E0D2
:100600000BBF02C007900D92AE3BB107D9F712E0C5
:10061000CAEED2E000E006C021970109802FFE015A
:100620000E941826C93ED10780E00807A9F70E945A
:10063000A1210C947C28E4CCAF92BF92CF92DF92A0
:10064000EF92FF920F931F93CF93DF93EC01E8811A
:10065000F9813897A080B180A80EB91ED501ED911F
:10066000FC913697808191818A0D9B1DDC01ED9173
:10067000FC910190F081E02D199520913008F50151
:1006800080819181243059F4E0912E08F0912F0857
:100690002281338120573A41213A314118F1FC013E
:1006A00036978081918164E3C62E62E0D62E7CE984
:1006B000E72E76E0F72E04E312E020EA31E140E491
:1006C00053E264E48A0D9B1D0E944B16882389F136
:1006D000D501ED91FC91369780819181F501E80F6C
:1006E000F91FB1C3248135812C5936402936344055
:1006F000B0F626813781275A31402B31314078F6C8
:10070000FC0136970190F081E02DEA0DFB1D11866A
:10071000D501ED91FC9136970190F081E02DEA0D25
:10072000FB1D8FEF9FEFDC0183839483A583B6834A
:100730008AC3E881F9813A97808191818C0F9D1F4E
:100740000E94A80B811181C3E881F9813C978081C7
:1007500091818C0F9D1F0E94C70F811176C3E88184
:10076000F9817097808191818C0F9D1F0E947B0E73
:1007700081116BC3E881F9817297808191818C0F1F
:100780009D1F0E94470E811160C3E881F981749713
:10079000A080B180AC0EBD1ED501ED91FC913697C5
:1007A000808191814DE0C42E42E0D42E57E2E52EA7
:1007B00056E0F52E0DE012E028E630E140ED50E283
:1007C00064E28A0D9B1D0E944B16811140C08091EE
:1007D0003008823209F05DC0D501ED91FC91369769
:1007E0008081918120E030E04DE052E060E08A0DB0
:1007F0009B1D0E944B16882309F44BC0E0912E08E4
:10080000F0912F08848195818D59944084319340D3
:10081000C8F5D501ED91FC9136970190F081E02D5E
:10082000EA0DFB1D83819481A581B6819068838345
:100830009483A583B683E501E881F9813697019019
:10084000F081E02DEA0DFB1D81858F5F8187D50149
:10085000ED91FC91209130083697A081B181AA0DCD
:10086000BB1D81E090E0243211F080E090E018960A
:100870009C938E93179780819181F501E80FF91F62
:1008800086E0E2C284819581895891408830914008
:1008900090F2E881F9817697808191818C0F9D1F7C
:1008A0000E94C50D8111D1C2E881F981789700813C
:1008B0001181809130088E3479F0E881F9817A973E
:1008C000A080B180AC0EBD1E20913008F501808162
:1008D0009181243001F50CC0E0912E08F0912F0891
:1008E000828193818F529D408B3C9840C8F1E5CF27
:1008F000E0912E08F0912F0822813381275D394144
:100900002B33314140F42481358125573640203541
:10091000344008F4B2C0FC013697808191812DE902
:10092000C22E28E0D22E3AE3E32E31E1F32E0AEE76
:1009300011E02AE331E144E752E264E28A0D9B1DB3
:100940000E944B16882309F4B9C0E501E881F981BA
:10095000369780819181F501E80FF91F89E074C213
:10096000848195818F529D408B3C984008F0A5CFA3
:100970000C0F1D1F83E0D80112968C93F80113828F
:1009800014821582168262E2C8010E949F10882399
:1009900009F493CFE0912E08F0912F08D801129618
:1009A0008C91DF01A80FB11DA80FB11D2D913C91B5
:1009B000275731402B3F310508F07FCF91E0980F4A
:1009C000D80112969C93DF01A90FB11DA90FB11D8B
:1009D0002D913C912F523D402B3C384008F06DCF7B
:1009E0008E5FD80112968C9312978D919C91DC01A9
:1009F00016970D90BC91A02D9D01200F311FD8019D
:100A000013968D919C911497D90118969C938E936F
:100A10001797D80113961D921D921D921C9216973E
:100A2000E458FF4F808191818454910991838083A0
:100A30006DE4C8010E949F10882309F43ECFE801AD
:100A4000E881F98136970190F081E02DE00FF11FE8
:100A500094E29187E881F98136970190F081E02D49
:100A6000E00FF11F4B815C816D817E814383548354
:100A70006583768398E092832EC2268137812F5634
:100A80003140263F310508F046CFFC0136970190F2
:100A9000F081E02DEA0DFB1D1186D501ED91FC9151
:100AA00036970190F081E02DEA0DFB1D8FEF9FEF4F
:100AB000DC0183839483A583B68350CFE881F981D9
:100AC0007C97008111810C0F1D1FD801ED91FC91C5
:100AD000369780819181800F911FDC01ED91FC910F
:100AE0000190F081E02D199580913008843131F525
:100AF000F801A081B181BD0166507109DB01ED9162
:100B0000FC91E00FF11F828520912E0830912F0873
:100B100081110CC0D90112968D919C9113978A5C1A
:100B200098408D3D954080F510861782F9018481AB
:100B300095818458934089359240A8F1E881F981E4
:100B40007E97008111810C0F1D1FD801ED91FC9142
:100B5000369780819181800F911FDC01ED91FC918E
:100B60000190F081E02D199580913008803109F4D1
:100B70009AC0809130088C3109F495C0809130087A
:100B8000843209F064C18FC0D90112968D919C9175
:100B9000139784599141893B9B4080F681E090E016
:100BA00090878783C3CFDB01ED91FC91E00FF11FAC
:100BB00083E0838780E090E0DC01F801408151818F
:100BC000FA01369740815181400F511FFA01638528
:100BD0006231E0F5F901E60FF11DE60FF11DA0808D
:100BE000B18074E8A71A73E0B70A79E5A71672E036
:100BF000B706E8F5880F991FAA1FBB1F81606F5FBA
:100C0000FA016387F80140815181FA0136974081EA
:100C10005181400F511FFA016385F901E60FF11D63
:100C2000E60FF11DA080B18074E8A71A73E0B70A3F
:100C300079E5A71672E0B70640F5880F991FAA1F3D
:100C4000BB1F81606F5FFA016387B7CF20E1218707
:100C5000E801E881F98136970190F081E02DE00FFD
:100C6000F11F83839483A583B6838AE0EDC001904E
:100C7000F081E02DE25CF140ED32F14008F05ECF12
:100C8000880F991FAA1FBB1FBACF0190F081E02DDA
:100C9000E25CF140ED32F14008F050CF880F991F2F
:100CA000AA1FBB1FCFCFD801ED91FC9136970190C1
:100CB000F081E02DE00FF11F828560912E08709188
:100CC0002F0881110BC0DB0112968D919C91139717
:100CD00088539140823D910508F0B9C0DB0114961C
:100CE0008D919C911597805D91098C38910508F044
:100CF000AEC083E0838780E090E0DC01F8012081D2
:100D00003181F901369740815181400F511FFA011D
:100D1000F384E0913008AF2CB12CF0E031979501CD
:100D2000220F331FAE16BF065CF4FB01E20FF31F68
:100D30002081318127553109213A310500F187C0E1
:100D4000FB01E20FF31F208131812D57310924353A
:100D5000310508F07CC0209130082450EA01298731
:100D6000E801E881F98136970190F081E02DE00FEC
:100D7000F11F83839483A583B6838BE065C0F394CE
:100D8000FA01F386F80120813181F901369740811B
:100D90005181400F511FFA012385FB01E20FF11D24
:100DA000E20FF11DA080B18036ECA31AB10831EA40
:100DB000A316B104C0F0A080B1803CE6A31A31E0D4
:100DC000B30A31EAA316B104B0F432E0880F991FD8
:100DD000AA1FBB1F3A95D1F70196A11DB11D2F5F28
:100DE000FA0123878BCFE2E0880F991FAA1FBB1F50
:100DF000EA95D1F7F4CFA080B18033E1A31A32E0B5
:100E0000B30A31EAA316B10458F4F2E0880F991F2F
:100E1000AA1FBB1FFA95D1F70296A11DB11DDFCF06
:100E20000190F081E02DEA5BF240E13AF10578F4BF
:100E3000E2E0880F991FAA1FBB1FEA95D1F703961E
:100E4000A11DB11DCCCF81E0828381E044C0E88147
:100E5000F981B09780819181C80FD91FE881F9810C
:100E60003697808191812AE8C22E22E0D22E3EE977
:100E7000E32E37E0F32E0AE812E02CE13CE04CE1EF
:100E80005CE062E28C0F9D1F0E944B16882319F1D3
:100E9000E881F98136970190F081E02DEC0FFD1F7C
:100EA0009CE09283E881F9813697A081B181AC0FF3
:100EB000BD1F13962D913C911497222730773D83C7
:100EC0002C830190F081E02DEC0FFD1F23813481F4
:100ED00033273F832E83DF91CF911F910F91FF9096
:100EE000EF90DF90CF90BF90AF900895CF93DF93B6
:100EF000EC01E881F98136970190F081E02DE80F4F
:100F0000F91F83819481A581B68190FF04C08DE390
:100F100092E00E945219E881F98136970190F081A0
:100F2000E02DEC0FFD1F83819481A581B68191FF97
:100F300004C084E392E00E945219E881F981369757
:100F40000190F081E02DEC0FFD1F83819481A5813C
:100F5000B68192FF04C08FE292E00E945219E881AC
:100F6000F981369780819181C80FD91F8B819C812F
:100F7000AD81BE8193FF06C08AE292E0DF91CF91FE
:100F80000C945219DF91CF910895CF92DF92EF9296
:100F9000FF920F931F93CF93DF936C017A018B0124
:100FA000C0E0D0E0CE15DF0589F0D8016D918D014C
:100FB000D601ED91FC910190F081E02DC6011995CB
:100FC000892B11F47E0102C02196ECCFC701DF917D
:100FD000CF911F910F91FF90EF90DF90CF900895E8
:100FE000FC01A089B1898C91A689B78982FD0FC0C7
:100FF0009C91818D8F5F8F73228D821749F0218D97
:10100000DF01A20FB11D5D969C93818F08958C9195
:101010000895089580E090E00895FC01538D448D7B
:10102000252F30E0842F90E0821B930B541710F093
:10103000CF96089501970895FC01918D828D9817A0
:1010400061F0828DDF01A80FB11D5D968C91928DAC
:101050009F5F9F73928F90E008958FEF9FEF0895A9
:10106000FC01918D828D981731F0828DE80FF11D72
:10107000858D90E008958FEF9FEF0895FC01918D8D
:10108000228D892F90E0805C9F4F821B91098F7386
:101090009927089589E898E0F1DF21E0892B09F488
:1010A00020E0822F08958EEB96E0E8DF21E0892B87
:1010B00009F420E0822F0895FC01848DDF01A80F40
:1010C000B11DA35ABF4F2C91848D90E001968F7370
:1010D0009927848FA689B7892C93A089B1898C918F
:1010E00080648C93938D848D981306C00288F38955
:1010F000E02D80818F7D80830895EF92FF920F9382
:101100001F93CF93DF93EC0181E0888F9B8D8C8DB3
:10111000981305C0E889F989808185FD23C0F62EE2
:101120000B8D10E00F5F1F4F0F731127E02E8C8D7A
:10113000E8120BC00FB607FCFACFE889F989808165
:1011400085FFF5CFCE01B8DFF2CF8B8DFE01E80F22
:10115000F11DE35AFF4FF0820B8FEA89FB898081F2
:10116000806207C0EE89FF896083E889F989808100
:101170008064808381E090E0DF91CF911F910F9197
:10118000FF90EF900895CF93DF93EC01888D882333
:10119000C1F0EA89FB89808185FD05C0A889B989EC
:1011A0008C9186FD0EC00FB607FCF5CF808185FFC0
:1011B000F2CFA889B9898C9185FFEDCFCE017CDF74
:1011C000E8CFDF91CF91089580E090E0892B19F06E
:1011D0006ADF811120C080E090E0892B41F080E03F
:1011E00090E0892B21F00E940000811117C080E05F
:1011F00090E0892B41F080E090E0892B21F00E9463
:10120000000081110EC080E090E0892B79F042DF70
:1012100081110AC008950E940000DDCF0E940000E5
:10122000E6CF0E940000EFCF0C94000008956115F6
:10123000710579F0FB0101900020E9F73197AF01CA
:10124000461B570BDC01ED91FC910280F381E02DF0
:10125000199480E090E00895CF93DF93EC018881AA
:101260009981009711F00E94EC26198218821D8244
:101270001C821B821A82DF91CF9108950E946828F8
:101280000F931F93CF93DF93EC018881998100978F
:1012900029F02A813B812617370788F48B016F5F7D
:1012A0007F4F0E948427009761F0998388831B8376
:1012B0000A832C813D81232B11F4FC01108281E0F3
:1012C00001C080E0DF91CF911F910F910895EF92BF
:1012D000FF920F931F93CF93DF93FC0124813581FD
:1012E0006115710511F480E018C041155105A1F098
:1012F0007B01EC018A01020F131FB801C1DF8823B3
:1013000091F3288139818C819D81B701820F931FD0
:101310000E9475281D830C8381E0DF91CF911F917E
:101320000F91FF90EF900895EF92FF920F931F930C
:10133000CF93DF93EC017B018A01BA01A1DF811118
:1013400003C0CE0189DF07C01D830C83B7018881EC
:1013500099810E947528CE01DF91CF911F910F9145
:10136000FF90EF900895CF93DF93EC016115710525
:1013700051F0FB0101900020E9F73197AF01461BC6
:10138000570BD2DF01C068DFCE01DF91CF91089506
:10139000CF93DF93EC016115710559F0FB010190CA
:1013A0000020E9F73197AF01461B570B90DF811101
:1013B00002C0CE0151DFCE01DF91CF910895CF93CE
:1013C000DF93EC01FB0144815581608171817FDFF6
:1013D000811102C0CE0140DFCE01DF91CF9108958F
:1013E000FC01808191810C94EC260F931F93CF9385
:1013F000DF93CDB7DEB761970FB6F894DEBF0FBEAF
:10140000CDBF8C01CB01F8011182108213821282B0
:101410001582148250E0BE016F5F7F4F0E94A624A8
:10142000BE016F5F7F4FC8019EDF61960FB6F894D3
:10143000DEBF0FBECDBFDF91CF911F910F910895F9
:101440000F931F93CF93DF93CDB7DEB729970FB6D6
:10145000F894DEBF0FBECDBF8C01862FF80111823C
:101460001082138212821582148250E0BE016F5FD7
:101470007F4F90E00E94A624BE016F5F7F4FC8019E
:1014800072DF29960FB6F894DEBF0FBECDBFDF9195
:10149000CF911F910F910895FC0111821082138248
:1014A0001282158214826115710549F0FB010190C9
:1014B0000020E9F73197AF01461B570B35CF089550
:1014C0004F925F926F927F92EF92FF920F931F93D2
:1014D000CF93DF93CDB7DEB7A1970FB6F894DEBFF9
:1014E0000FBECDBF7C01FA01CB0119A2223008F456
:1014F0002AE08E010F5D1F4F422E512C612C712C62
:10150000BF01A30192010E94F625F901CA01015011
:1015100011096A3014F4605D01C0695CD8016C93F4
:10152000232B242B252B61F7B801C70180DEA19660
:101530000FB6F894DEBF0FBECDBFDF91CF911F91E4
:101540000F91FF90EF907F906F905F904F90089574
:1015500066E474E06CCE0F931F93CF93DF93EC019E
:1015600066DE8C01CE01F4DF800F911FDF91CF91F9
:101570001F910F9108952115310541F4DC01ED9182
:10158000FC910190F081E02D642F199499CF0F9375
:101590001F93CF93DF93EC019A01AB0160E070E001
:1015A000EADF8C01CE01D4DF800F911FDF91CF9154
:1015B0001F910F9108953BCE1F920F920FB60F927D
:1015C00011240BB60F922F933F934F935F936F931A
:1015D0007F938F939F93AF93BF93EF93FF9389E88C
:1015E00098E06ADDFF91EF91BF91AF919F918F914C
:1015F0007F916F915F914F913F912F910F900BBE13
:101600000F900FBE0F901F9018951F920F920FB65C
:101610000F9211240BB60F922F933F934F935F932A
:101620006F937F938F939F93AF93BF93EF93FF93AA
:1016300089E898E0D5DCFF91EF91BF91AF919F9140
:101640008F917F916F915F914F913F912F910F906B
:101650000BBE0F900FBE0F901F9018951F920F9208
:101660000FB60F9211240BB60F922F933F934F9307
:101670005F936F937F938F939F93AF93BF93EF93FA
:10168000FF938EEB96E018DDFF91EF91BF91AF9144
:101690009F918F917F916F915F914F913F912F918A
:1016A0000F900BBE0F900FBE0F901F9018951F92BA
:1016B0000F920FB60F9211240BB60F922F933F93F8
:1016C0004F935F936F937F938F939F93AF93BF934A
:1016D000EF93FF938EEB96E083DCFF91EF91BF9148
:1016E000AF919F918F917F916F915F914F913F91BA
:1016F0002F910F900BBE0F900FBE0F901F9018955B
:10170000CF93DF93282F30E0F901EC51FE4F849105
:10171000F901E256FE4FD491F901E85AFE4FC49107
:10172000CC2389F0811147D6EC2FF0E0EE0FFF1F9C
:10173000EC5BFD4FA591B491EC91ED2381E090E03D
:1017400021F480E002C080E090E0DF91CF91089525
:10175000CF93DF93EC01E881F98136978081918105
:101760008C0F9D1FDC01ED91FC910190F081E02D2B
:10177000199580913008823171F0809130088A315A
:1017800051F080913008803231F0809130088A32F7
:1017900011F080E089C0E881F98136970190F081ED
:1017A000E02DEC0FFD1F828581110DC0A0912E0848
:1017B000B0912F0812968D919C9113978850974065
:1017C000813B944030F782E0838720912E0830914E
:1017D0002F08E881F9813697A081B181AC0FBD1F38
:1017E0001B964C911B9750913008842F90E0451721
:1017F00068F4880F991FF901E80FF91F8081918122
:10180000825C91408D329140A8F0C3CF9C01215061
:10181000310937FD9C013595279519962C93E88160
:10182000F981369780819181C80FD91F82E08A8320
:1018300081E03AC04F5F1B964C93E881F98136975F
:101840000190F081E02DEC0FFD1F8385D901A80FD9
:10185000B11DA80FB11D4D915C9111974458534093
:101860004935524050F44381548165817681440F5B
:10187000551F661F771F416010C04D915C91425CFF
:1018800051404D32514008F084CF438154816581ED
:101890007681440F551F661F771F438354836583EA
:1018A00076838F5F838795CFDF91CF910895CF9314
:1018B000DF93EC0182EA94E00E945219E0912E0835
:1018C000F0912F084081518160E070E02AE030E023
:1018D0008EEB96E050DE83E994E00E945219E88195
:1018E000F98136970190F081E02DEC0FFD1F4381C7
:1018F00054816581768120E130E08EEB96E03BDE1D
:101900006AEA74E08EEB96E056DE8C819D8181154B
:1019100020E3920709F4A0C068F4811520E1920742
:1019200039F1811520E2920709F44EC0892B09F0A4
:1019300029C11EC0811520E5920709F4D4C030F4F6
:10194000811520E4920709F4CEC01CC1811520E660
:10195000920709F40AC18115904709F013C18FE479
:1019600093E00E9452196E817F8140E150E005C1F1
:101970008CE894E00E945219CE01B8DA8E819F81E2
:101980008230910541F08430910551F0019759F46E
:1019900087E894E002C081E894E00E94521907C0F1
:1019A0008AE794E0FACF84E794E00E9473198C816F
:1019B0009D81892B19F488E493E002C08EE694E0BF
:1019C000DF91CF910C9473198E819F819C012F70B0
:1019D0003327232BE9F082E694E00E9452198E818E
:1019E00080FF03C08BE594E004C081FF04C085E55F
:1019F00094E00E9452198E8182FF03C081E594E039
:101A000004C083FF25C08BE494E00E94521920C0DB
:101A10009C0120733327232B69F08EE394E00E940E
:101A200052198E8182FF03C08AE394E0EECF84E3F3
:101A300094E0EBCF87FF03C08FE194E0E6CF86FF11
:101A400003C08AE094E0E1CF89EF93E00E9473192C
:101A50006AE070E08A8143C082EF93E00E945219ED
:101A60008E819F818F3F910519F487EE93E02EC000
:101A700080FF04C08AED93E00E9452198E8181FF9D
:101A800004C08CEC93E00E9452198E8182FF04C046
:101A90008DEB93E00E9452198E8183FF04C082EB8C
:101AA00093E00E9452198E8184FF04C085EA93E07E
:101AB0000E9452198E8185FF04C08CE993E00E9438
:101AC00052198E8186FF04C087E993E00E94521963
:101AD0008FE893E00E94521960E170E08B81DF9102
:101AE000CF910C9480198115904539F485E893E0E5
:101AF0000E945219CE01FAD904C08CE793E00E94EB
:101B0000521984E793E00E9452194E815F8160E090
:101B100070E020E130E08EEB96E02DDD6AEA74E0C3
:101B20008EEB96E048DD4E815F8160E070E02AE058
:101B300030E08EEB96E01FDD8E819F8180978036AE
:101B4000910570F46DEA74E08EEB96E034DD6E8101
:101B50008EEB96E0D2DA6EEA74E08EEB96E02BDD47
:101B60008EEB96E0DF91CF91F3CC83E693E00E9479
:101B700052196E817F814AE050E08EEB96E0DF9152
:101B8000CF9105CDDF91CF910895CF92DF92EF9263
:101B9000FF920F931F93CF93DF93EC01E881F981BC
:101BA0003697808191818C0F9D1FDC01ED91FC9116
:101BB0000190F081E02D199520913008888199815C
:101BC000263091F4E0912E08F0912F082281338184
:101BD00028533D40213D384038F424813581285335
:101BE0003D40213D384018F1FC01369780819181BC
:101BF00024E3C22E22E0D22E3CE9E32E36E0F32E7F
:101C000004E312E020EA31E140EA51E164E48C0FA0
:101C10009D1F0E944B16882389F1E881F981369730
:101C200020813181C20FD31F97E09A8327C026817C
:101C30003781275A31402B313140B0F62285338528
:101C4000275A31402B31314078F6FC01369701900C
:101C5000F081E02DEC0FFD1F1186E881F9813697A8
:101C600080819181C80FD91F8FEF9FEFDC018B839B
:101C70009C83AD83BE8387E08A8381E0DF91CF912F
:101C80001F910F91FF90EF90DF90CF900895CF922A
:101C9000DF92EF92FF920F931F93CF93DF93EC01AC
:101CA000E881F98136978081918121E4C22E23E079
:101CB000D22E33ECE32E39E0F32E01E413E024E0DE
:101CC0003DE044E05DE060E38C0F9D1FE4D7882396
:101CD00049F0E881F981369720813181C20FD31F05
:101CE00095E09A83DF91CF911F910F91FF90EF9034
:101CF000DF90CF900895EF92FF920F931F93CF93B1
:101D0000DF93EC01E881F9813897808191818C0F14
:101D10009D1FDC01ED91FC910190F081E02D199562
:101D200080913008873110F480E02AC1809130081A
:101D30008E34D0F7E881F98138970190F081E02D59
:101D4000EC0FFD1F8285A0912E08B0912F08811104
:101D500009C012968D919C9113978F5C97408633A2
:101D6000954010F714968D919C9115978A59924041
:101D70008E3B9140C8F683E08387E881F9813697EE
:101D80000190F081E02DEC0FFD1F14821582168268
:101D900017821382E881F9813697808191818C0FB7
:101DA0009D1FBC016D5F7F4F4CEB51E0F3D6892B3B
:101DB00009F0BACFE881F9813697808191818C0F43
:101DC0009D1FBC016D5F7F4F4CEB51E0E3D6019747
:101DD00009F0AACFE881F98136970190F081E02DD2
:101DE000EC0FFD1F1282E881F98180913008DF013C
:101DF00018970D90BC91A02DAC0FBD1F1B969C9108
:101E00003697981708F086C0808191818C0F9D1FAE
:101E1000BC016D5F7F4F4CEB51E0BCD68C01E8817B
:101E2000F98136970190F081E02DEC0FFD1F828142
:101E30008330D1F0E881F9813697808191818C0FD0
:101E40009D1FBC016D5F7F4F4CEB51E0A3D67C0121
:101E5000E881F98136970190F081E02DEC0FFD1FAC
:101E600082818330B9F40BC0BF016D5F7F4F4CEBB3
:101E700051E0CF018FD608171907E1F255CFBF0106
:101E80006D5F7F4F4CEB51E0CF0184D6E816F90629
:101E900009F04ACF01151105B1F4EA94EF2809F0D1
:101EA00043CFE881F98136970190F081E02DEC0F66
:101EB000FD1F84819581A681B781880F991FAA1F74
:101EC000BB1F816017C00130110509F02DCFEF282D
:101ED00009F02ACFE881F98136970190F081E02D51
:101EE000EC0FFD1F84819581A681B781880F991F12
:101EF000AA1FBB1F84839583A683B783E881F981DA
:101F000036970190F081E02DEC0FFD1F82818F5FED
:101F1000828369CF0190F081E02DEC0FFD1F82815B
:101F2000843211F480E2828388819981FC013697A2
:101F30000190F081E02DEC0FFD1F2281FC0138970C
:101F40000190F081E02DEC0FFD1F218788819981A0
:101F5000FC0138970190F081E02DEC0FFD1FDC01B2
:101F600016978D919C91C80FD91F8C819D81AE8150
:101F7000BF8183839483A583B68384E0828381E0D9
:101F8000DF91CF911F910F91FF90EF9008950F93E4
:101F90001F93CF93DF93EC01E881F981389780811B
:101FA00091818C0F9D1FDC01ED91FC910190F081DE
:101FB000E02D1995809130088D3010F480E0BAC082
:101FC000E881F98138970190F081E02DEC0FFD1F39
:101FD00081E08387E881F98136970190F081E02DD7
:101FE000EC0FFD1F14821582168217821382E8817E
:101FF000F9813697808191818C0F9D1FBC016D5FA7
:102000007F4F49E753E0C6D5892BC1F6E881F981B6
:1020100036970190F081E02DEC0FFD1F1282E881D0
:10202000F981DF0118970D90BC91A02DAC0FBD1F59
:10203000809130081B969C911B973697981708F053
:1020400057C0808191818C0F9D1FBC016D5F7F4FB8
:1020500049E753E09FD58C01E881F98136972081CB
:102060003181CE01820F931FBC016D5F7F4F49E725
:1020700053E090D501301105A9F4892B09F09ECFCA
:10208000E881F98136970190F081E02DEC0FFD1F7A
:1020900084819581A681B781880F991FAA1FBB1FD4
:1020A000816016C0012B09F089CF019709F086CF16
:1020B000E881F98136970190F081E02DEC0FFD1F4A
:1020C00084819581A681B781880F991FAA1FBB1FA4
:1020D00084839583A683B783E881F981369701903D
:1020E000F081E02DEC0FFD1F82818F5F828397CFFF
:1020F0000190F081E02DEC0FFD1F828119968C93E9
:1021000088819981FC0138970190F081E02DEC0FD6
:10211000FD1FDC0116978D919C91C80FD91F8C81F2
:102120009D81AE81BF8183839483A583B68383E041
:10213000828381E0DF91CF911F910F910895DC019F
:10214000362F90912E0820912F0812968C9112977D
:10215000831778F4E92FF22FE80FF11DE80FF11D36
:1021600040815181475751404B3F510520F080E05D
:10217000089581E0089541E0480F12964C9312971C
:10218000E92FF22FE40FF11DE40FF11D4081518181
:10219000455654404F3E524060F413964D915D9128
:1021A0006D917C911697440F551F661F771F4160F4
:1021B00011C040815181475751404B3F5105B8F6FE
:1021C00013964D915D916D917C911697440F551F1B
:1021D000661F771F13964D935D936D937C931697AF
:1021E0008E5F12968C931297B0CF089580916107FD
:1021F000882339F080912D0880FF02C02F9A08951E
:102200002F980895EBE5F7E01782118684E080931C
:1022100035080895DC0114969C911497983030F598
:10222000492F50E0FA013197E730F10570F4882723
:10223000EE58FF4F8F4F0C941826E8980DC0E99880
:102240000BC0EA9809C0EB9807C0EC9805C0ED9860
:1022500003C0EE9801C0EF98E92FF0E0EE0FFF1FEA
:10226000E050FE4F85EF90E191838083CD01CACF8E
:10227000CF93DF9380915B0790E0FC01E256FE4F25
:102280002491FC01E85AFE4F84918823C1F090E02C
:10229000880F991FFC01EC5DFE4FC591D491FC01A4
:1022A000E25CFE4FA591B4919FB7F8943881822FDC
:1022B000809583238883EC91E22BEC939FBF10924F
:1022C0002D0881E0809335081092E709DF91CF91C6
:1022D0000895CF92DF92EF92FF92CF93DF93EB01BD
:1022E000BA01550F880B990B0E94DB246B017C010E
:1022F00020E030E040E45FE30E9416250E94CA25FA
:10230000C617D70770F020E030E040EA5FE3C7016E
:10231000B6010E9416250E94CA2521E06C177D0790
:1023200008F420E0822FDF91CF91FF90EF90DF90B3
:10233000CF900895FC0112821382148215821682B6
:1023400010861782118608954627342F252FA9015C
:10235000442784E0440F551F8A95E1F7422753270D
:10236000CA01892F992782958F7048275927CA015A
:10237000882735E0969587953A95E1F78427952744
:102380000895EF92FF920F931F93CF93DF937C01F9
:10239000EB018B01040F151FC017D10729F06991BC
:1023A000C7010E94881DF8CFDF91CF911F910F9137
:1023B000FF90EF90089590E0FC013197E231F10534
:1023C00008F04EC08827E758FF4F8F4F0C9418260F
:1023D000809180008F7703C0809180008F7D8093F3
:1023E0008000089580918000877FF9CF84B58F7732
:1023F00002C084B58F7D84BD08958091B0008F7731
:1024000003C08091B0008F7D8093B00008958091CB
:1024100090008F7707C0809190008F7D03C08091DE
:102420009000877F8093900008958091A0008F771F
:1024300007C08091A0008F7D03C08091A000877F9E
:102440008093A0000895809120018F7707C080912C
:1024500020018F7D03C080912001877F8093200120
:1024600008953FB7F8948091E9099091EA09A09105
:10247000EB09B091EC0926B5A89B05C02F3F19F0D8
:102480000196A11DB11D3FBFBA2FA92F982F8827F4
:10249000820F911DA11DB11DBC01CD0142E0660F4F
:1024A000771F881F991F4A95D1F70895CF93DF931F
:1024B00020916307211172C021E0209362072091CF
:1024C0003508243029F02091E709222309F466C059
:1024D000EC01CEDEC6DF6093310870933208809342
:1024E000330890933408EC81E83008F057C0AE2FE1
:1024F000B0E0AA0FBB1FA050BE4F8DE994E111962A
:102500009C938E938E2F90E0FC013197E730F1057C
:1025100030F58827E557FF4F8F4F0C941826809190
:1025200069008C7F816080936900E89A37C0809150
:102530006900837F846080936900E99A2FC080914D
:1025400069008F7C806180936900EA9A27C080913E
:1025500069008F73806480936900EB9A1FC080913B
:102560006A008C7F816080936A00EC9A17C080912A
:102570006A00837F846080936A00ED9A0FC0809127
:102580006A008F7C806180936A00EE9A07C0809118
:102590006A008F73806480936A00EF9ADF91CF9115
:1025A00008951F920F920FB60F9211242F933F930D
:1025B0008F939F93AF93BF938091ED099091EE0914
:1025C000A091EF09B091F0093091E80923E0230FC1
:1025D0002D3720F40196A11DB11D05C026E8230F5B
:1025E0000296A11DB11D2093E8098093ED099093F7
:1025F000EE09A093EF09B093F0098091E909909159
:10260000EA09A091EB09B091EC090196A11DB11D59
:102610008093E9099093EA09A093EB09B093EC0940
:10262000BF91AF919F918F913F912F910F900FBECE
:102630000F901F9018951F920F920FB60F921124B2
:102640000BB60F922F933F934F935F936F937F93AC
:102650008F939F93AF93BF93EF93FF93E0910E02FD
:10266000F0910F021995FF91EF91BF91AF919F915A
:102670008F917F916F915F914F913F912F910F902B
:102680000BBE0F900FBE0F901F9018951F920F92C8
:102690000FB60F9211240BB60F922F933F934F93C7
:1026A0005F936F937F938F939F93AF93BF93EF93BA
:1026B000FF93E0910C02F0910D021995FF91EF91BB
:1026C000BF91AF919F918F917F916F915F914F914A
:1026D0003F912F910F900BBE0F900FBE0F901F9048
:1026E00018951F920F920FB60F9211240BB60F92EE
:1026F0002F933F934F935F936F937F938F939F930A
:10270000AF93BF93EF93FF93E0910202F091030226
:102710001995FF91EF91BF91AF919F918F917F910B
:102720006F915F914F913F912F910F900BBE0F9042
:102730000FBE0F901F9018951F920F920FB60F9219
:1027400011240BB60F922F933F934F935F936F9388
:102750007F938F939F93AF93BF93EF93FF93E091FA
:102760000002F09101021995FF91EF91BF91AF9195
:102770009F918F917F916F915F914F913F912F9199
:102780000F900BBE0F900FBE0F901F9018951F92C9
:102790000F920FB60F9211240BB60F922F933F9307
:1027A0004F935F936F937F938F939F93AF93BF9359
:1027B000EF93FF93E0910A02F0910B021995FF91BC
:1027C000EF91BF91AF919F918F917F916F915F91A9
:1027D0004F913F912F910F900BBE0F900FBE0F9016
:1027E0001F9018951F920F920FB60F9211240BB6DF
:1027F0000F922F933F934F935F936F937F938F939A
:102800009F93AF93BF93EF93FF93E0910802F091F2
:1028100009021995FF91EF91BF91AF919F918F910F
:102820007F916F915F914F913F912F910F900BBED0
:102830000F900FBE0F901F9018951F920F920FB61A
:102840000F9211240BB60F922F933F934F935F93E8
:102850006F937F938F939F93AF93BF93EF93FF9368
:10286000E0910602F09107021995FF91EF91BF9157
:10287000AF919F918F917F916F915F914F913F9118
:102880002F910F900BBE0F900FBE0F901F901895B9
:102890001F920F920FB60F9211240BB60F922F9327
:1028A0003F934F935F936F937F938F939F93AF93D8
:1028B000BF93EF93FF93E0910402F0910502199505
:1028C000FF91EF91BF91AF919F918F917F916F9108
:1028D0005F914F913F912F910F900BBE0F900FBEC4
:1028E0000F901F901895CF93C1E0C093630784E0C9
:1028F0008093350880915C078823E9F08091620716
:102900008823C9F040912D0850E0440F551F65E61B
:1029100077E080912E0890912F080E946C2880917A
:102920002D088093300810926207C09364071092BC
:102930002D08C0933508CF910895CF92DF92EF9282
:10294000FF92CF93DF9300D01F92CDB7DEB789DD22
:1029500069837A838B839C83C980DA80EB80FC80D7
:102960008091310890913208A0913308B0913408D9
:10297000C81AD90AEA0AFB0A80913508843009F49A
:102980003EC0853019F08130E1F412C02FDC809117
:102990002D0880FD16C080915D0790915E07A0E034
:1029A000B0E08C159D05AE05BF0558F481E026C04A
:1029B00080915B070E94800B892B09F585E080934D
:1029C0003508E0912D08F0E0EE0FFF1FEB59F84FAE
:1029D000D182C08289819A81AB81BC818093310888
:1029E00090933208A0933308B093340880912D0857
:1029F0008F5F80932D08843610F082E074DF0F9093
:102A00000F900F900F90DF91CF91FF90EF90DF909C
:102A1000CF90089578941F920F920FB60F921124C1
:102A20000BB60F922F933F934F935F936F937F93C8
:102A30008F939F93AF93BF93CF93EF93FF93809127
:102A40005B070E94800BC82F80913108909132085B
:102A5000A0913308B09134080196A11DB11D809357
:102A6000310890933208A0933308B09334088091D2
:102A70002D08843610F084E036DF909135089230CE
:102A800079F018F4913039F070C0933069F19430D6
:102A900009F461C06AC0C11168C010922D0826C037
:102AA000C13009F062C0E0912D0881E08E0F809363
:102AB0002D08F0E08091310890913208A091330800
:102AC000B0913408EE0FFF1FEB59F84F91838083CC
:102AD0001092310810923208109233081092340884
:102AE00083E08093350841C0C1111FC0E0912D08DB
:102AF00081E08E0F80932D08F0E080913108909155
:102B00003208A0913308B0913408EE0FFF1FEB5943
:102B1000F84F9183808310923108109232081092FE
:102B200033081092340882E0DCCF40913108509194
:102B30003208609133087091340880915F0790915A
:102B40006007A0E0B0E084179507A607B70768F410
:102B500085E0C9DE0AC0C11108C010923108109288
:102B60003208109233081092340840DBFF91EF9145
:102B7000CF91BF91AF919F918F917F916F915F9115
:102B80004F913F912F910F900BBE0F900FBE0F9062
:102B90001F9018955F926F927F928F929F92AF9243
:102BA000BF92CF92DF92EF92FF920F931F93CF933A
:102BB000DF93DC01ED91FC91369700811181080FC4
:102BC000191FF801538420913008521608F04EC0A6
:102BD0006A015B017C0190912E0880912F08E92FFA
:102BE000F82FE50DF11DE50DF11D80809180C52DBB
:102BF000C095C170D0E0B401C8016BDB81111CC06D
:102C00003601660C771CA301B401C80162DB811197
:102C100015C0A3014C0D5D1DB401C8015ADB811123
:102C20000FC0D8011A968C91882311F1B1E05B1284
:102C30001FC08C149D04E0F491E003C092E001C039
:102C400093E0F50180818F5F891710F4808312C0B3
:102C50001082D701ED91FC9136970190F081E02D23
:102C6000EE0DFF1D83858F5F838704C0C1E001C027
:102C7000C2E0D0E0CE01DF91CF911F910F91FF9084
:102C8000EF90DF90CF90BF90AF909F908F907F900C
:102C90006F905F9008952F923F924F925F926F9244
:102CA0007F928F929F92AF92BF92CF92DF92EF92DC
:102CB000FF920F931F93CF93DF93CDB7DEB7289783
:102CC0000FB6F894DEBF0FBECDBF98878F83590132
:102CD0001A830983DC01ED91FC910190F081E02DD4
:102CE0004D835E836C831995509030086C814D81C3
:102CF0005E81662331F080913008861711F080E004
:102D0000B1C0EF81F885828581110EC04115510552
:102D100059F0E0912E08F0912F08628173818F8124
:102D20009885D7DA882359F3A114B10461F0E091B2
:102D30002E08F0912F0864817581A5018F819885F7
:102D4000C8DA8823E1F283E0AF81B8851B968C93C3
:102D5000A0902E08B0902F0820E030E0612C712C5C
:102D600000E010E0212C312C88248A94850CEF811E
:102D7000F8859384492D50E0981408F04FC0440F13
:102D8000551FF501E40FF51F6081718149815A815A
:102D90008F8198852C833D839CDA2C813D8188230B
:102DA00009F4ADCF81E0890DEF81F8858387250196
:102DB000480E511C480E511CD2016D917C91A70107
:102DC000CF012C833D8385DA2C813D81882341F01E
:102DD000A301B801C10101E00E942026216014C0B6
:102DE000F20160817181A6018F8198852C833D83DA
:102DF00070DA2C813D81882309F481CFA301B801C9
:102E0000C10101E00E9420263A018B011C0182E0F1
:102E1000890DAF81B8851B968C93A9CFCA01019704
:102E200097FDCA01959587958150AF81B885199610
:102E30008C931997A30113962C93139714963C9394
:102E4000149715966C92159716965C931697B80181
:102E5000C10100E20E943B2617962C931797189603
:102E60003C9381E028960FB6F894DEBF0FBECDBF2D
:102E7000DF91CF911F910F91FF90EF90DF90CF9056
:102E8000BF90AF909F908F907F906F905F904F908A
:102E90003F902F900895EF92FF920F931F93CF933F
:102EA000DF93EC0188819981EC81FD81228133815E
:102EB0008217930760F5EA81FB81019111912EEF52
:102EC0003FEF201B310B7901A3E0EA22FF24FB83B3
:102ED000EA83019699838883CB019A010417150729
:102EE00008F49801260F371F8217930729F04191A4
:102EF000DC014D93CD01F8CF9701200F311F8A815E
:102F00009B81280F391F3B832A83C80102C08FEFA2
:102F10009FEFDF91CF911F910F91FF90EF90089558
:102F20000F931F93CF93DF936115710509F45EC072
:102F30008B01EC01BC016B5E7F4F41E050E0C801AA
:102F4000AADFBE016A5E7F4F41E050E0C801A3DF07
:102F5000BE016F5E7F4F42E050E0C8019CDF8D896B
:102F6000813081F5D8012D913C9111971496ED9106
:102F7000FC911597828193812817390718F51296CD
:102F8000ED91FC911397819191911396FC93EE939F
:102F900012972F5F3F4F11963C932E93FC8BEB8B38
:102FA0002EEF3FEF281B390B23703327820F931F1F
:102FB00012962D913C911397820F931F13969C9319
:102FC0008E93129781E090E0988B8F878E8588236F
:102FD00069F02B893C8949895A89EC85FD856E8980
:102FE0008D89DF91CF911F910F911994DF91CF912E
:102FF0001F910F910895EF92FF920F931F93CF931C
:10300000DF937C01C901EB018B01040F151FC01771
:10301000D10729F06991AC01C70196D9F8CFDF91AA
:10302000CF911F910F91FF90EF900895CF93DF9371
:10303000EC01BC01635F7F4F42E050E0A2D98A857A
:103040009B85DC01ED91FC910190F081E02D60EC1D
:10305000DF91CF911994CF92DF92EF92FF920F936D
:103060001F93CF93DF931F921F92CDB7DEB78C01D2
:103070007B015A83498342E050E0BE016F5F7F4F7E
:1030800080D9F8012585368542E050E0BE016F5FAA
:103090007F4FC801B0DFF80196878587C980DA8045
:1030A000CE0CDF1CEC14FD0481F0F7016081C80137
:1030B0002FD5F80145855685F70161917F01C8013B
:1030C00043D9F80196878587EDCFE980FA80F1949E
:1030D000E194F108F3E0EF22FF24F1E0EF1AF108A8
:1030E00068F060E0C80114D5F8014585568560E0B8
:1030F000C8012AD9F80196878587EFCF0F900F90E6
:10310000DF91CF911F910F91FF90EF90DF90CF90C3
:103110000895EF92FF920F931F93CF93DF93CDB754
:10312000DEB728970FB6F894DEBF0FBECDBF7C0187
:103130007A8369832B833C834D835E8318870F8357
:10314000DC011E961C921E921D971A968D919C91E1
:103150001B97DC01ED91FC910190F081E02D60EC7A
:10316000199542E050E0BE016F5F7F4FC70109D95A
:10317000F7012585368542E050E0BE016F5F7F4F45
:10318000C70139DFD7011E969C938E931D9742E0AD
:1031900050E0BE01695F7F4FC701F3D8F701258575
:1031A000368542E050E0BE01695F7F4FC70123DFF3
:1031B000D7011E969C938E931D9744E050E0BE016C
:1031C0006D5F7F4FC701DDD8F7012585368544E067
:1031D00050E0BE016D5F7F4FC7010DDFD7011E9626
:1031E0009C938E931D9728960FB6F894DEBF0FBE62
:1031F000CDBFDF91CF911F910F91FF90EF90089578
:10320000CF92DF92EF92FF92CF93DF936B017C011D
:10321000E091BE06F091BF060190F081E02D6DE2D5
:103220008EEB96E01995EC0144275527BA014C190D
:103230005D096E097F092AE08EEB96E00E94600A24
:103240008C0F9D1FDF91CF91FF90EF90DF90CF907B
:103250000895CF93DF93AC01990F660B770B77FF3F
:1032600004C0CB01BA01CCDF05C02AE08EEB96E0AA
:103270000E94600AEC018EEB96E00E94A80A8C0F77
:103280009D1FDF91CF910895AC01990F660B770BCD
:1032900077FF03C0CB01BA01B3CF2AE08EEB96E0F3
:1032A0000C94600A0F931F93CF93DF938C01C0E0BF
:1032B000D0E0F801EC0FFD1F6491662371F0E091FE
:1032C000BE06F091BF060190F081E02D8EEB96E0F6
:1032D0001995892B11F02196ECCFCE01DF91CF917A
:1032E0001F910F910895CF93DF93DCDFEC018EEBFC
:1032F00096E00E94A80A8C0F9D1FDF91CF91089540
:10330000CF93DF939B01482F50E060E070E08EEB9D
:1033100096E00E94BB0AEC018EEB96E00E94A80AA0
:103320008C0F9D1FDF91CF9108950F931F93CF9323
:10333000DF93EC012AE00E94600A8C01CE010E941A
:10334000A80A800F911FDF91CF911F910F910895CF
:103350002F923F924F925F926F927F928F929F92A5
:10336000AF92BF92CF92DF92EF92FF920F931F9393
:10337000CF93DF93CDB7DEB76A970FB6F894DEBF71
:103380000FBECDBF8C01FC0182818D508D3408F4BD
:1033900073C088E895E086DFF80182818A3508F0FD
:1033A0003FC08D3008F080E025EF34E03A83298378
:1033B00021EF34E03C832B832CEE34E03E832D83DD
:1033C00028EE34E038872F8324EE34E03A872987CB
:1033D00026ED34E03C872B8722ED34E03E872D87B5
:1033E0002DEC34E0388B2F8723EC34E03A8B298B9B
:1033F00029EB34E03C8B2B8B21EB34E03E8B2D8B87
:103400002CEA34E0388F2F8B27EA34E03A8F298F6B
:10341000FE01E80FF11DE80FF11D8181928102C0CC
:103420008DEF94E03FDF86E895E03CDFF8014281D4
:1034300050E060E070E02AE08EEB96E00E94600AC7
:103440008CE795E02FDFF801438154816581768117
:1034500020E130E08EEB96E00E94BB0A85E795E024
:1034600021DFF8014781508560E070E020E130E025
:103470008EEB96E00E94BB0A82E795E013DFF8012D
:10348000418550E060E070E02AE08EEB96E00E941B
:10349000600A8AE695E006DF80916407882319F0C8
:1034A0008DE595E0FFDE8EEB96E00E94A80A80E5B0
:1034B00095E0F8DE4091300850E060E070E02AE0EE
:1034C0008EEB96E00E94600A88E495E0EBDEE091E6
:1034D0002E08F0912F08608171814AE050E08EEB58
:1034E00096E00E94C70A8EE395E0DCDEE0912E08AC
:1034F000F0912F084281538160E070E02AE030E0D3
:103500008EEB96E00E94BB0A8AE395E0CBDEE09169
:103510002E08F0912F08648175814AE050E08EEB0F
:1035200096E00E94C70AE0912E08F0912F08828150
:10353000938124803580280E391E412C512CA12CDA
:10354000B12CE12CF12C88248A944FE7942ECC24C2
:10355000CA945FE7D52E03E010E08091300890E038
:10356000081719070CF05DC0E0912E08F0912F08A4
:10357000C801880F991FE80FF91F60807180C3018F
:10358000072C000CAA0BBB0B280E391E4A1E5B1E13
:1035900000FF10C0681479040CF44301A614B704AA
:1035A0000CF45301C8019595879501976DDE87E36B
:1035B00095E00DC01614170424F46C147D040CF46B
:1035C0006301E614F7040CF4730184E395E06ADE0A
:1035D000C3015ADE3801F1E06F1A710860FE03C0C2
:1035E00082E395E05FDEC30183709927019719F4A8
:1035F0008FE295E057DEC30187709927019721F488
:103600008EEB96E00E94A80A8FE1682277246A94E4
:10361000672821F48EEB96E00E94A80A0F5F1F4FE7
:103620009CCF8EEB96E00E94A80A87E295E03ADEF6
:10363000B201A1018EEB96E078DE8CE195E032DEFE
:10364000C40122DE85E195E02DDEC50102DE8AE0BF
:1036500095E028DEC60118DE83E095E023DEC70191
:10366000F8DD8EEB96E06A960FB6F894DEBF0FBEDB
:10367000CDBFDF91CF911F910F91FF90EF90DF9021
:10368000CF90BF90AF909F908F907F906F905F9002
:103690004F903F902F900C94A80A8F929F92AF92D8
:1036A000BF92CF92DF92EF92FF920E9431124B01B4
:1036B0005C0180E1C82E87E2D82EE12CF12C0E941B
:1036C0003112DC01CB0188199909AA09BB09883E8E
:1036D0009340A105B10558F021E0C21AD108E108D4
:1036E000F10888EE880E83E0981EA11CB11CC1145D
:1036F000D104E104F10419F7FF90EF90DF90CF902F
:10370000BF90AF909F908F900895FC01A089B189E0
:1037100082E08C93A485B5851C92A685B78580E14F
:103720008C93108EA489B58986E08C93A289B38985
:103730008C9180618C93A289B3898C9188608C93E1
:10374000A289B3898C9180688C930288F389E02DDB
:1037500080818F7D80830895CF93DF93FC01448126
:103760005581608171818EEB96E00E94C507EC0166
:103770008EEB96E00E94A80A8C0F9D1FDF91CF91DF
:103780000895CF92DF92EF92FF92CF93DF93EC01F7
:103790008FB7F894C090ED09D090EE09E090EF0952
:1037A000F090F0098FBF8FB7F8944091ED095091D8
:1037B000EE096091EF097091F0098FBF4C195D0916
:1037C0006E097F09403D57406105710528F4CE011F
:1037D000D5D1009741F302C080E090E0DF91CF9116
:1037E000FF90EF90DF90CF900895CF93DF931092EA
:1037F000630780916407E0912E08F0912F088823D9
:1038000021F0BF011092640706C080912D088093BB
:10381000300865E677E020E0809130082817E0F472
:10382000822F90E0880F991FDF01A80FB91FEB01CD
:10383000C80FD91F488159818091860890918708C7
:1038400020FF03C0919581959109840F951F1196D2
:103850009C938E932F5FE0CF1092620781E0DF91FF
:10386000CF910895CF93DF931F92CDB7DEB7DC01E0
:103870001496ED91FC911597228133812130310509
:10388000C9F441E050E0BE016F5F7F4F04DB8981E6
:10389000853039F482EC95E026DD81E08093DC0907
:1038A00009C081EB95E0FEDC6AE070E0898128DDEB
:1038B0001092DC090F90DF91CF9108958F929F9223
:1038C000BF92CF92DF92EF92FF920F931F93CF930D
:1038D000DF93CDB7DEB762970FB6F894DEBF0FBEA9
:1038E000CDBFD82EB62E8A014901EDB6FEB64AE00C
:1038F000CE0107960E94200A60EB74E0CE0101968B
:103900000E944C0ABE01695F7F4FCE0101960E9462
:10391000DF0922DFCE0101960E94F009CE01079651
:103920000E94F009D11030C04AE06B2DCE010D96F7
:103930000E94200A4AE0B801CE0107960E94F509CC
:1039400063EC74E0CE0101960E944C0ABE01695FEF
:103950007F4FCE0101960E94DF096AEC74E00E945D
:10396000C809BE01635F7F4F0E94DF09F5DECE010B
:1039700001960E94F009CE0107960E94F009CE013F
:103980000D960E94F00999C021E0D21267C0C801CB
:1039900001962DB73EB7281B390B0FB6F8943EBFE2
:1039A0000FBE2DBF8DB79EB701966C01A801B40163
:1039B0000E946C28F601E00FF11F10824AE06B2D87
:1039C000CE010D960E94200A4AE0B801CE0107966A
:1039D0000E94F5096EED74E0CE0101960E944C0A3A
:1039E000BE01695F7F4FCE0101960E94DF0969EE3B
:1039F00074E00E94C809BE01635F7F4F0E94DF0927
:103A0000ABDECE0101960E94F009CE0107960E941E
:103A1000F009CE010D960E94F009B601CE0107967D
:103A20000E944C0A60E175E0CE0101960E944C0AAA
:103A3000BE01695F7F4FCE0101960E94DF098CDED7
:103A4000CE0101960E94F009CE0107960E94F0096E
:103A50000FB6F894FEBE0FBEEDBE2FC092E0D91295
:103A60001BC0053F2FEF120741F16CE175E08EEBB3
:103A700096E00E94DB0A11950195110900311105AC
:103A800034F4F801EE0FFF1FEF56FA4F02C0E5E9DC
:103A9000F5E0659174910DC033E0D31208C0012B9D
:103AA00019F462E375E005C060E475E002C06BE400
:103AB00075E08EEB96E00E94AB0A0FB6F894FEBE5E
:103AC0000FBEEDBE62960FB6F894DEBF0FBECDBF3F
:103AD000DF91CF911F910F91FF90EF90DF90CF90EA
:103AE000BF909F908F900895DC01ED91FC913897E5
:103AF00020813181820F931F0C941C03DC01ED9116
:103B0000FC913A9720813181820F931F0C941C0302
:103B1000CF93DF93EC018A859B85603CA1F06B3DE0
:103B200021F5DC01ED91FC910190F081E02D6BED30
:103B300019958A859B85DC01ED91FC910190F081BE
:103B4000E02D6DED18C0DC01ED91FC910190F0814C
:103B5000E02D6BED19958A859B85DC01ED91FC913B
:103B60000190F081E02D6CED06C0DC01ED91FC913F
:103B70000190F081E02DDF91CF9119948F929F9267
:103B8000AF92BF92DF92EF92FF920F931F93CF936A
:103B9000DF9300D000D0CDB7DEB78C01DD24D39405
:103BA000D8011A968D919C911B97DC01ED91FC91A7
:103BB0000084F185E02D1995892B09F480C1D80185
:103BC0001A968D919C911B97DC01ED91FC910284DA
:103BD000F385E02D19958B3D910519F4F801D58AEF
:103BE000DFCFD80153962D913C915497803C91059D
:103BF00009F040C12830310508F42DC1F801E784EF
:103C0000F0888485882309F489C06AE675E080819C
:103C100091810E94DB0AD80153964D915C91549793
:103C200060E070E02AE030E08D919C910E94BB0A38
:103C300064E775E0F801808191810E94DB0AD80178
:103C40001F964D915C915097052E000C660B770BDB
:103C500020E130E08D919C910E94BB0A68E975E0FB
:103C6000F801808191810E94DB0AD7014D915C911E
:103C700060E070E020E130E0F801808191810E94F5
:103C8000BB0A6BEA74E0D8018D919C910E94DB0A1B
:103C9000F701448155816681778120E130E0D801C8
:103CA0008D919C910E94BB0A6BEA74E0F8018081BF
:103CB00091810E94DB0AD70112964D915C91139776
:103CC00060E070E020E130E0F801808191810E94A5
:103CD000BB0A48E0A42EB12CF801238934898081E5
:103CE0009181A216B306C0F46BEA74E00E94DB0A6D
:103CF000D8011F96ED91FC915097EA0DFB1D408174
:103D000050E060E070E020E18D919C910E94600A9B
:103D1000BFEFAB1ABB0AE0CF0E94A80AD8015396A6
:103D2000AD90BC905497B2E0AB1AB108F80187840B
:103D3000908820E030E0A501B401C8015CD9F4010D
:103D4000EA0DFB1D208131818217930761F0D801B4
:103D50001C968C911C97882309F47DC067E775E059
:103D60008D919C9176C0F70180819181823091057F
:103D700039F083309105D9F0019709F062C051C044
:103D8000D8011C968C911C97882309F466C068E8BA
:103D900075E08D919C910E94DB0AF7014481558169
:103DA00066817781D8018D919C91BFDA56C0F80168
:103DB0008485882329F161E975E0808191810E94E1
:103DC000DB0AD70114964D915D916D917C91179707
:103DD0002AE030E0F801808191810E94BB0A6BEA01
:103DE00074E0D8018D919C910E94DB0AF7016281F9
:103DF00073814AE050E0D8018D919C910E94C70ADE
:103E0000F701A481B5818D919C911197009709F0DC
:103E100059C012962D913C911397232B09F052C053
:103E20001AC06BE975E0D8018D919C910E94AB0A94
:103E3000D8011896ED91FC911997309761F019957A
:103E40000AC0F8018485882331F066EA75E0808134
:103E500091810E94AB0AE12CF12CD80154961C925E
:103E60001E92539755961C92E114F10409F498CED2
:103E7000C70158C0F8014589442371F08C3D910574
:103E800031F08D3D910529F48BED90E002C080EC7E
:103E900090E0D80155961C92F80141895289241767
:103EA000350708F07DCE47855089B9016F5F7F4F98
:103EB000748B638BFA01E20FF31F808371CE80E075
:103EC00090E030C0FE82ED82E8E0EE0EF11CFC8254
:103ED000EB821A8219821296ED91FC91139730971A
:103EE00009F4B9CF0097D1F014962D913C91159714
:103EF000A9015595479520FF0AC0DC01A40FB51F05
:103F00002D913C91E20FF31F0190F081E02DBE0155
:103F10006F5F7F4F840F951F19959DCFCE0101963E
:103F2000199599CF26960FB6F894DEBF0FBECDBF78
:103F3000DF91CF911F910F91FF90EF90DF90BF9095
:103F4000AF909F908F900895CF93DF9389E898E08A
:103F500010928C0810928B0848EE53E060E070E0FD
:103F600040938D0850938E0860938F08709390084B
:103F70002CEE32E030938A0820938908E5E3F1E0E3
:103F8000F0939608E0939508E4E3F1E0F093980845
:103F9000E0939708E0E3F1E0F0939A08E093990842
:103FA000E1E3F1E0F0939C08E0939B08E2E3F1E0A9
:103FB000F0939E08E0939D08E6E3F1E0F093A008FB
:103FC000E0939F081092A2081092A3081092A408F0
:103FD0001092A5081092C1061092C0064093C20626
:103FE0005093C3066093C4067093C5063093BF0612
:103FF0002093BE0625EC30E03093CB062093CA0612
:1040000024EC30E03093CD062093CC0620EC30E059
:104010003093CF062093CE0621EC30E03093D106CA
:104020002093D00622EC30E03093D3062093D206C2
:1040300026EC30E03093D5062093D4061092D706B4
:104040001092D8061092D9061092DA06909327099A
:1040500080932609109229091092280910922B09A1
:1040600010922A09909331098093300981E080935E
:1040700032098CE399E0909336098093350980E802
:1040800090E0909338098093370910923A09109282
:10409000390910923B0982E494E09093850880935B
:1040A00084081092620785E697E090932F0880932A
:1040B0002E0810925C0788E79EE190935E0780933C
:1040C0005D078CE990E09093600780935F0782E33F
:1040D00090E090938708809386081092630710926F
:1040E000610784E0809335088FEF8093880884E42B
:1040F00080935B0747EA51E0FA01649121E631E0E1
:10410000F9018491882399F090E0880F991FFC01B0
:10411000EC5DFE4FA591B491825C9E4FFC01C59170
:10412000D4918FB7F8949C91692B6C938FBFEDEE6F
:10413000F1E08491FA01D491F901C491CC2399F072
:1041400081110E94DB11EC2FF0E0EE0FFF1FE25C0B
:10415000FE4FA591B4918FB7F8949C914D2F409547
:1041600049234C938FBF81E08093D7098CEF93E074
:104170009093BD098093BC0982E094E09093C609B6
:104180008093C50988E094E09093C8098093C7099B
:104190008EE094E09093CA098093C90984E194E089
:1041A0009093CC098093CB098AE194E09093CE0957
:1041B0008093CD0980E294E09093D0098093CF0959
:1041C00086E294E09093D2098093D1098CE294E046
:1041D0009093D4098093D30982E394E09093D60915
:1041E0008093D50988E394E09093D9098093D80906
:1041F0008EE394E09093DB098093DA0910926207D2
:1042000085E697E090932F0880932E081092590826
:1042100010925108109252081092530810925408AC
:10422000109255081092570810925608109258088C
:1042300080EE92E090934E0880934D0880ED92E0DE
:1042400090935C0880935B0888ED92E0909350080F
:1042500080934F0864EB73E08FE598E05AD38AE1CE
:1042600093E090934E0880934D0882E293E0909300
:10427000500880934F088CE293E090935C08809301
:104280005B0888E393E090935E0880935D0880E488
:1042900093E09093600880935F088AE493E09093A2
:1042A00068088093670884E593E090936A08809398
:1042B00069088CE593E090936C0880936B0884E622
:1042C00093E090936E0880936D088CE693E0909352
:1042D000700880936F0882E793E09093770880934B
:1042E000760888E793E090937908809378088EE7C2
:1042F00093E090937B0880937A0886E893E090930C
:104300007D0880937C0810923D0810923C08109222
:104310003F0810923E081092440886E299E090937C
:104320003B0880933A088FEF9FEFDC0180933608BB
:1043300090933708A0933808B0933908DF91CF9154
:104340000895CF93DF93CDB7DEB7A7970FB6F89454
:10435000DEBF0FBECDBF789484B5826084BD84B5C6
:10436000816084BD85B5826085BD85B5816085BD70
:1043700080916E00816080936E0010928100809128
:1043800081008260809381008091810081608093B0
:104390008100809180008160809380008091B100D5
:1043A00084608093B1008091B00081608093B00000
:1043B0008091910082608093910080919100816052
:1043C0008093910080919000816080939000809113
:1043D000A10082608093A1008091A1008160809300
:1043E000A1008091A00081608093A00080912101B4
:1043F000826080932101809121018160809321015D
:104400008091200181608093200180917A008460F6
:1044100080937A0080917A00826080937A00809104
:104420007A00816080937A0080917A00806880931E
:104430007A001092C1008EEB96E067D989E898E087
:1044400064D98CEF92E00E94731982E39CE190930F
:104450002B0980932A0988E299E06C01990FEE08F4
:10446000FF088091300990913109DC01ED91FC91B8
:104470000190F081E02D60EC199500E010E0A701BB
:10448000960161E070E086E299E00E94891886E278
:1044900099E00E941618A0902E09B0902F09109252
:1044A0002F0910922E0986E299E06BD98C01892B95
:1044B00009F45AC0F8014481558166817781809161
:1044C00032094C155D056E057F05A9F5882341F07D
:1044D00060EA75E080912609909127090E94AB0A55
:1044E000B0922F09A0922E0983ED92E00E947319D9
:1044F00000E010E020E030E0A90164E070E086E236
:1045000099E00E94891886E299E00E94161886E2D6
:1045100099E037D98C01892B81F185EC92E00E94DA
:104520005219F80144815581668177818EEB96E0BE
:104530000E94951922C0882309F4B5CF69E474E07C
:1045400080912609909127090E94DB0AD8011496D0
:104550004D915D916D917C91179780912609909175
:1045600027090E9495199FCFB0922F09A0922E097A
:1045700085EE92E00E94731974CF81E08FA329E544
:104580003BE13EA32DA32EE53CE13093430820936D
:1045900042088093440886E398E090933D08809316
:1045A0003C0880E997E190933F0880933E08109281
:1045B00041081092400803E010E02CE338E0032E9D
:1045C000000C440B550B68E270E080913A08909122
:1045D0003B080E9489184BE050E06FE474E0809142
:1045E0003A0890913B080E942B1842E050E0BE012F
:1045F0006B5D7F4F80913A0890913B080E942B1889
:1046000041E050E0BE01695D7F4F80913A08909192
:104610003B080E942B1880913A0890913B080E9419
:10462000161880913A0890913B08ABD8009789F012
:10463000DC0114964D915D916D917C91179777FDFA
:1046400008C0409336085093370860933808709339
:104650003908FC01848195819093DE098093DD09FE
:1046600097FF08C087E892E00E94731916D80C944F
:10467000000055C01C8A1B8A1E8A1D8A188E1F8A3C
:104680004AE0BE016F5F7F4F57D1BE016F5F7F4F22
:10469000CE0143960E94B3094AE069E57BE1CE0171
:1046A00001960E94F5096FE474E0CE014F960E94D6
:1046B0004C0A1A8E198E1C8E1B8E1E8E1D8E6F8DAF
:1046C00078A16115710531F04BA15CA1CE0149962D
:1046D0000E9494096BE574E0CE0149960E94C809D6
:1046E000BE016F5F7F4F0E94DF096DE574E00E949D
:1046F000C809BE016D5E7F4F0E94DF092DD8CE0133
:1047000049960E94F009CE014F960E94F009CE0111
:1047100001960E94F009CE0143960E94F0098AE7B3
:1047200092E00E94731984E898E00E9456128EE588
:1047300092E00E9473192FB7F8948091ED0990913F
:10474000EE09A091EF09B091F0092FBF8093E30922
:104750009093E409A093E509B093E60986E299E015
:104760000DDA8091630781112CC080913508853066
:1047700009F052C080915B070E94800B892B09F4DD
:104780004BC0F894C0903108D0903208E0903308C4
:10479000F090340878940E943112AB01BC014C199E
:1047A0005D096E097F0980915D0790915E07A0E029
:1047B000B0E084179507A607B70770F583E00E945D
:1047C000731413D88DE498E00E941C0320914D08C7
:1047D00030914E08F901369780819181835B974F24
:1047E000DC0112964C914C3089F4F901B09780812C
:1047F0009181835B974F0E94570CE0914D08F09197
:104800004E08369780819181835B974F0E94A8194B
:1048100084E898E00E9456124091E3095091E4091F
:104820006091E5097091E6098091DF099091E009B6
:10483000A091E109B091E209805D9A48AF4FBF4F66
:1048400084179507A607B7070CF060C04093DF09EF
:104850005093E0096093E1097093E2098091DC09CB
:10486000882309F44BC080E193E00E9452196FE461
:1048700074E08EEB96E00E94DB0A6BE574E08EEB51
:1048800096E00E94DB0A4AE050E069E57BE18EEBAE
:1048900096E00E94C70A109246081092450820919F
:1048A000360830913708409138085091390857FD43
:1048B0002DC002E010E069E270E080913A0890912A
:1048C0003B080E94891845E250E064E874E080915A
:1048D0003A0890913B080E942B1845E250E064E8AA
:1048E00074E080913A0890913B080E942B188091C7
:1048F0003A0890913B080E94161808C084E293E0A1
:104900000E9473190E944D1B0C9400000E94E40841
:1049100012CFFB0120813181FC0131832083FB0117
:1049200042815381F901369720813181FC01E20FE8
:10493000F31F518340830895BB274A3031F49923F4
:1049400022F4BDE2909581959F4F0BC045325105F1
:1049500018F4423008F004C0FB011082CB01089526
:10496000BB27FB015527AA27880F991FAA1FA41749
:1049700010F0A41B83955051B9F7A05DAA3308F03D
:10498000A95DA193009779F7B111B1931192CB0171
:1049900000C0DC01FC01672F71917723E1F73297AA
:1049A00004C07C916D9370836291AE17BF07C8F30A
:1049B0000895E89409C097FB3EF490958095709512
:1049C00061957F4F8F4F9F4F9923A9F0F92F96E95B
:1049D000BB279395F695879577956795B795F111D0
:1049E000F8CFFAF4BB0F11F460FF1BC06F5F7F4F6D
:1049F0008F4F9F4F16C0882311F096E911C077237F
:104A000021F09EE8872F762F05C0662371F096E887
:104A1000862F70E060E02AF09A95660F771F881F56
:104A2000DAF7880F9695879597F908950BD078C097
:104A300069D028F06ED018F0952309F05AC05FC0F5
:104A40001124A2C07ED0A0F3959FD1F3950F50E022
:104A5000551F629FF001729FBB27F00DB11D639F30
:104A6000AA27F00DB11DAA1F649F6627B00DA11DD6
:104A7000661F829F2227B00DA11D621F739FB00D7C
:104A8000A11D621F839FA00D611D221F749F3327EC
:104A9000A00D611D231F849F600D211D822F762F85
:104AA0006A2F11249F5750408AF0E1F088234AF082
:104AB000EE0FFF1FBB1F661F771F881F91505040CE
:104AC000A9F79E3F510570F014C05EC05F3FECF344
:104AD000983EDCF3869577956795B795F795E795BA
:104AE0009F5FC1F7FE2B880F911D9695879597F9CB
:104AF000089597F99F6780E870E060E008959FEF60
:104B000080EC089500240A94161617061806090664
:104B1000089500240A941216130614060506089533
:104B2000092E0394000C11F4882352F0BB0F40F4BB
:104B3000BF2B11F460FF04C06F5F7F4F8F4F9F4FFB
:104B4000089557FD9058440F551F59F05F3F71F07D
:104B50004795880F97FB991F61F09F3F79F08795E4
:104B60000895121613061406551FF2CF4695F1DF6D
:104B700008C0161617061806991FF1CF86957105FD
:104B8000610508940895E894BB2766277727CB0131
:104B900097F90895DEDF88F09F5790F0B92F992795
:104BA000B751A0F0D1F0660F771F881F991F1AF038
:104BB000BA95C9F712C0B13081F0E5DFB1E00895D0
:104BC000E2CF672F782F8827B85F39F0B93FCCF351
:104BD000869577956795B395D9F73EF4909580952E
:104BE000709561957F4F8F4F9F4F0895A1E21A2EC8
:104BF000AA1BBB1BFD010DC0AA1FBB1FEE1FFF1F81
:104C0000A217B307E407F50720F0A21BB30BE40BD0
:104C1000F50B661F771F881F991F1A9469F7609517
:104C20007095809590959B01AC01BD01CF010895D1
:104C3000EE0FFF1F881F8BBF0790F691E02D199490
:104C40000F93083090F0982F872F762F652F542FD1
:104C5000432F322F22270850F4CF220F331F441F37
:104C6000551F661F771F881F991F0A95B2F70F916E
:104C7000089597FB10F8169400080F93083098F0E9
:104C80000850232F342F452F562F672F782F892F29
:104C9000902DF4CF059497958795779567955795BF
:104CA0004795379527950A95AAF70F910895CF93C1
:104CB000DF938230910510F482E090E0E091F309F7
:104CC000F091F40920E030E0C0E0D0E0309711F13D
:104CD0004081518148175907C0F04817590761F4BE
:104CE00082819381209719F09B838A832BC09093B4
:104CF000F4098093F30926C02115310519F04217F4
:104D0000530718F49A01BE01DF01EF010280F3811D
:104D1000E02DDCCF2115310509F1281B390B24309A
:104D2000310590F412968D919C9113976115710540
:104D300021F0FB019383828304C09093F409809354
:104D4000F309FD01329644C0FD01E20FF31F819388
:104D50009193225031092D933C933AC02091F1094F
:104D60003091F209232B41F4209112023091130269
:104D70003093F2092093F109209110023091110231
:104D80002115310541F42DB73EB7409114025091E1
:104D90001502241B350BE091F109F091F209E2179D
:104DA000F307A0F42E1B3F0B2817390778F0AC014E
:104DB0004E5F5F4F2417350748F04E0F5F1F50932B
:104DC000F2094093F1098193919302C0E0E0F0E091
:104DD000CF01DF91CF9108950F931F93CF93DF936E
:104DE000009709F48CC0FC01329713821282009163
:104DF000F3091091F4090115110581F42081318125
:104E0000820F931F2091F1093091F2092817390779
:104E100079F5F093F209E093F10971C0D80140E00F
:104E200050E0AE17BF0750F412962D913C911397A6
:104E3000AD012115310509F1D901F3CF9D01DA0149
:104E40003383228360817181860F971F82179307B6
:104E500069F4EC0128813981260F371F2E5F3F4FFF
:104E6000318320838A819B8193838283452B29F41C
:104E7000F093F409E093F30942C01396FC93EE9388
:104E80001297ED01499159919E01240F351FE217A8
:104E9000F30771F480819181840F951F029611961A
:104EA0009C938E938281938113969C938E931297F9
:104EB000E0E0F0E0D80112968D919C911397009755
:104EC00019F0F8018C01F6CF8D919C9198012E5F1D
:104ED0003F4F820F931F2091F1093091F20928175B
:104EE000390769F4309729F41092F4091092F30904
:104EF00002C0138212821093F2090093F109DF912C
:104F0000CF911F910F9108956F927F928F929F92F0
:104F1000AF92BF92CF92DF92EF92FF920F931F93C7
:104F2000CF93DF93EC01009781F4CB01DF91CF9118
:104F30001F910F91FF90EF90DF90CF90BF90AF90B7
:104F40009F908F907F906F90B2CEFC01E60FF71F7D
:104F50009C0122503109E217F30708F4A8C0D901D7
:104F60000D911C91119706171707A8F00530110530
:104F700008F49BC0C80104978617970708F495C0EA
:104F800002501109061B170B019311936D937C932B
:104F9000CF0122DF8AC05B01A01AB10A4C01800E4A
:104FA000911EA091F309B091F40940E050E0E12C8A
:104FB000F12C109709F44AC0A815B905D1F56D90E8
:104FC0007C901197630182E0C80ED11CCA14DB04E7
:104FD00080F1A3014A195B096A0182E0C80ED11C65
:104FE0001296BC9012971396AC91B5E0CB16D104F3
:104FF00040F0B282A38351834083D9016D937C93A7
:105000000AC00E5F1F4FC301800F911FF9019183EA
:105010008083EB2DFA2FE114F10431F0D7011396C0
:10502000FC93EE93129741C0F093F409E093F309D7
:105030003CC08D919C9111974817590708F4AC0119
:105040007D0112960D90BC91A02DB3CF8091F109F6
:105050009091F20988159905E1F446175707C8F4AD
:105060008091100290911102009741F48DB79EB784
:105070004091140250911502841B950BE817F90713
:10508000B0F4F093F209E093F109F90171836083C0
:105090000CC0CB010CDE7C01009749F0A801BE01D9
:1050A0001BD0CE0199DEC70104C0CE0102C080E052
:1050B00090E0DF91CF911F910F91FF90EF90DF90E3
:1050C000CF90BF90AF909F908F907F906F900895FA
:1050D00081E090E0F89410C0FB01DC0102C0019077
:1050E0000D9241505040D8F70895FB01DC0101902A
:0C50F0000D920020E1F70895F894FFCF26
:1050FC00F510F510F510F510F510F510F510F5107C
:10510C000000F5098000D3FF00000000570C0000E0
:10511C002D0000009A11D5FF0000000000002B00AC
:10512C0000009A11D7FF00000000000029000000C9
:10513C009A11D9FF000000000000270000009A110E
:10514C00E0FF000000000000200000009A11E2FFC8
:10515C0000000000C50D00001E0000009A11E4FFC5
:10516C000000000000001C0000009A11E6FF000087
:10517C000000470E00001A0000009A11E8FFF8FF2B
:10518C00000000007B0EF0FF08000000000018007B
:10519C0000009A11F0FF0000000000001000000059
:1051AC009A11F2FF020000000000C70FF0FFFEFF93
:1051BC00000000000E0000009A11F4FF0000000037
:1051CC00A80B00000C0000009A1102000000000067
:1051DC000000FEFF00009A11000000007D08C507CA
:1051EC000D08C3083E081C0830082F002D002B00AA
:1051FC002900220020001E001C001A0012001000C2
:10520C000E0000000200000000001C030000FEFF66
:10521C0000009A11F2FFF4FFF2FF0000741DF0FF82
:10522C00F2FF0200F0FF00007E1DF0FFEEFF000019
:10523C00E6FFE8FFF8FFE6FF00007E1DE4FFE6FF57
:10524C00E4FF0000741DE4FFE2FF0000E0FFE2FF5A
:10525C00E0FF0000741DE0FFDEFF0000D9FFD7FF68
:10526C000000D7FFD5FF0000D5FFD3FF00000000E2
:10527C00D3FFD1FF0000570C1A031A0322032C038F
:10528C00380340034A0354035C0364036C03720346
:10529C0078037E038603E002E602D002D802BA024B
:1052AC00C202C802AA02B00294029C02A2028202AA
:1052BC008A0274027A0264026C0256025C02480290
:1052CC004E023A0240022C0232021C0224021E0040
:1052DC001C00190017001500130011000F000D0021
:1052EC000B0009000000020000000000F9FFF7FFAE
:1052FC000000F7FFF5FF0000F5FFF3FF0000F3FFE0
:10530C00F1FF0000F1FFEFFF0000EFFFEDFF0000E9
:10531C00EDFFEBFF0000EBFFE9FF0000E9FFE7FF0B
:10532C000000E6FFE4FF0000E4FFE2FF00000000E5
:10533C00000056120A110D0A004241443A20003175
:10534C00302E302E37372E313230003A0020697330
:10535C0020736572766564206F76657220636F6E5C
:10536C006E656374696F6E206E756D626572202355
:10537C00203D20004D6573736167652066726F6D0B
:10538C0020556E6F2057694669206F7665722054E0
:10539C00435020736F636B6574002020002027003E
:1053AC00746370436220636F6E6E656374696F6EB5
:1053BC002023000953656E74200020627974657394
:1053CC00206F76657220636C69656E7423000952D8
:1053DC006563656976656420002062797465732065
:1053EC006F7665722074686520636C69656E7420D5
:1053FC006F6E20636F6E6E656374696F6E20230031
:10540C000952656365697665643A200009436F6EDD
:10541C006E656374696F6E2070726F626C656D3A45
:10542C00200009446973636F6E6E65637465640074
:10543C0009436F6E6E6563746564005265636569DC
:10544C0076656420696E76616C6964207265737030
:10545C006F6E7365207479706500454C433A206714
:10546C006F742000204000454C433A20496E766111
:10547C006C69642043524300524553505F563A20A6
:10548C0000524553505F43423A20004E4545445F1D
:10549C0053594E432100434D443F3F004E6F20650E
:1054AC0072726F722C2065766572797468696E679A
:1054BC00204F4B2E004F7574206F66206D656D6FFD
:1054CC0072792E00556E6B6E6F776E20636F64650C
:1054DC002E0054696D656F75742E00526F7574696A
:1054EC006E672070726F626C656D2E004F70657206
:1054FC006174696F6E20696E2070726F677265736C
:10550C00732E00546F74616C206E756D6265722021
:10551C006578636565647320746865206D6178696E
:10552C006D756D206C696D69746174696F6E2E0098
:10553C00436F6E6E656374696F6E2061626F727417
:10554C0065642E00436F6E6E656374696F6E2072B6
:10555C00657365742E00436F6E6E656374696F6E50
:10556C0020636C6F7365642E004E6F7420636F6ED6
:10557C006E65637465642E00496C6C6567616C20A4
:10558C00617267756D656E742E005544502073659D
:10559C006E64206572726F722E00416C726561646C
:0E55AC007920636F6E6E65637465642E000077
:00000001FF
